:020000020000FC
:1000000002C018C01AC00FE50DBF04E00EBF50E0DB
:1000100003E007BB00E001BB0FEF02BB0AE005BF36
:1000200000EC0BBF7894513059F05230A9F00DD04C
:1000300018D0F9CF01E05027189502E05027189505
:1000400008D016D002D014D0EECF08B30E7F08BB74
:10005000089501E008BB089508D00AD002D008D066
:10006000E2CF08B30D7F08BB089502E008BB0895F6
:1000700022E034E04BEB4A95F1F73A95E1F72A9507
:06008000D1F70000089515
:00000001FF
