:020000020000FC
:1000000002C019C01EC00FE50DBF04E00EBF50E0D6
:1000100003E007BB00E001BB0FEF02BB0AE005BF36
:1000200000EC0BBF7894513091F05230E1F014D0D5
:100030001FD08895F8CF7FB711E0517051277FBF4F
:1000400018957FB712E0527051277FBF189508D0DE
:1000500016D002D014D0E7CF08B30E7F08BB0895A6
:1000600001E008BB089508D00AD002D008D0DBCF49
:1000700008B30D7F08BB089502E008BB089522E095
:1000800034E04BEB4A95F1F73A95E1F72A95D1F731
:0400900000000895CF
:00000001FF
