S01200005072616B325F617263682E7372656355
S113000012C019C018C017C016C015C014C013C040
S113001012C011C010C00FC00EC00DC00CC00BC068
S11300200AC009C008C011241FBECFE5D4E0DEBF5A
S1130030CDBF29D03DC0E4CF88B318BA089598B392
S113004081E0892788BB8FE493EC0197F1F700C026
S11300500000F2DF089598B382E0892788BB8FE41B
S113006093EC0197F1F700C00000E6DF089598B320
S113007084E0892788BB8FE493EC0197F1F700C0F3
S11300800000DADF089587B3876087BBC1E0D0E062
S1130090EE24E394F12C00E010E0CD2B21F0CFDF2F
S11300A0C02FD12F03C0E3DFCE2DDF2DD4DFF5CF5A
S10700B0F894FFCFEE
S9030000FC
