:1000000012C021C020C01FC01EC01DC01CC01BC00C
:100010001AC01AC018C017C016C015C014C013C02B
:1000200012C011C010C011241FBECFE5D4E0DEBF46
:10003000CDBF20E0A0E6B0E001C01D92A436B2071B
:10004000E1F76AD07DC0DCCF1F920F920FB60F92FE
:1000500011248F939F93AF93BF93809160009091F1
:100060006100A0916200B09163000196A11DB11DD5
:100070008093600090936100A0936200B09363004E
:100080008FEF82BFBF91AF919F918F910F900FBE65
:100090000F901F901895F89483B7887F83BF83B71C
:1000A000856083BF8FEF82BF89B7816089BF87B3C7
:1000B000836087BB78940895AB01BC018091600098
:1000C00090916100A0916200B09163008417950740
:1000D000A607B70798F308950F931F930091600048
:1000E000109161002091620030916300AB01BC016E
:1000F000400F511F621F731F80916000909161003B
:10010000A0916200B091630084179507A607B70716
:1001100098F31F910F910895BEDF64EF71E080E0C6
:1001200090E0CADF98B382E0892788BBC1E060E92C
:1001300071E080E090E0D0DF88B38C2788BBF7CFF8
:04014000F894FFCF61
:00000001FF
