S00D00005072616B342E7372656355
S113000012C019C018C017C016C015C014C013C040
S113001012C011C010C00FC00EC00DC00CC00BC068
S11300200AC009C008C011241FBECFE5D4E0DEBF5A
S1130030CDBF34D07DC0E4CF83B7856083BFB89A89
S113004008950F931F93AB01BC0182B78A019B01F2
S1130050080F111D211D311D0F3F1105210531050B
S113006089F084F082B78A019B01080F111D211DBC
S1130070311DC901B8012FEF30E040E050E01AD043
S1130080AB01BC0182B790E0A0E0B0E08417950713
S1130090A607B707BCF31F910F910895CDDFC1E008
S11300A068EC70E080E090E0CCDF88B38C2788BBFC
S11300B012BEF6CF052E97FB16F400940FD057FD11
S11300C005D014D007FC02D046F408C050954095E2
S11300D0309521953F4F4F4F5F4F089590958095F0
S11300E0709561957F4F8F4F9F4F0895A1E21A2E0F
S11300F0AA1BBB1BFD010DC0AA1FBB1FEE1FFF1FC8
S1130100A217B307E407F50720F0A21BB30BE40B17
S1130110F50B661F771F881F991F1A9469F760955E
S11301207095809590959B01AC01BD01CF01089518
S1070130F894FFCF6D
S9030000FC
