:1000000012C019C018C017C016C015C014C013C044
:1000100012C011C010C00FC00EC00DC00CC00BC06C
:100020000AC009C008C011241FBECFE5D4E0DEBF5E
:10003000CDBF1DD029C0E4CF87B3836087BB11BA81
:100040008FEF82BB089540B390B384E0982721E0FE
:1000500030E0941711F020E030E0C901089520B39A
:1000600081E090E02A3F11F080E090E00895E4DF25
:10007000EADF892B11F0C09AFBCFF1DF892B11F059
:0C008000C19AF6CF18BAF4CFF894FFCF65
:00000001FF
