:020000020000FC
:1000000000C00FE50DBF04E00EBF50E003E007BBEA
:1000100000E001BB0FEF02BB09D0503011F42DD02E
:10002000FBCF513091F05230E1F0F6CF80B38470C5
:1000300021F080B3887029F0089511E051705127A4
:10004000089512E052705127089508D016D002D0BA
:1000500014D0E2CF08B30E7F08BB089501E008BBBF
:10006000089508D00AD002D008D0D6CF08B30D7FAB
:1000700008BB089502E008BB089522E034E04BEB92
:100080004A95F1F73A95E1F72A95D1F700000895DE
:00000001FF
